{
  "contractName": "Counter",
  "abi": [
    {
      "constant": false,
      "inputs": [],
      "name": "add",
      "outputs": [],
      "payable": false,
      "stateMutability": "nonpayable",
      "type": "function"
    },
    {
      "constant": false,
      "inputs": [],
      "name": "subtract",
      "outputs": [],
      "payable": false,
      "stateMutability": "nonpayable",
      "type": "function"
    },
    {
      "constant": true,
      "inputs": [],
      "name": "getCounter",
      "outputs": [
        {
          "internalType": "uint256",
          "name": "",
          "type": "uint256"
        }
      ],
      "payable": false,
      "stateMutability": "view",
      "type": "function"
    }
  ],
  "bytecode": "0x60806040526000805534801561001457600080fd5b5060b9806100236000396000f3fe6080604052348015600f57600080fd5b5060043610603c5760003560e01c80634f2be91f1460415780636deebae31460495780638ada066e14604f575b600080fd5b60476067565b005b60476072565b6055607e565b60408051918252519081900360200190f35b600080546001019055565b60008054600019019055565b6000549056fea265627a7a72315820706b3d44a4e5f21931eb9a5e7f5ea59de8d056510f10ed824b58b108839e0c5764736f6c634300050b0032",
  "source": "// SPDX-License-Identifier: MIT\npragma solidity ^0.5.11;\n\ncontract Counter {\n  uint256 counter = 0;\n\n  function add() public {\n    counter++;\n  }\n\n  function subtract() public {\n    counter--;\n  }\n\n  function getCounter() public view returns (uint256) {\n    return counter;\n  }\n}",
  "sourcePath": "/Users/selimerunkut/dev/cosmos_hackathon/game_smartcontractsV1_truffle_new/contracts/TestToken.sol",
  "compiler": {
    "name": "solc",
    "version": "0.5.11+commit.c082d0b4.Emscripten.clang"
  },
  "schemaVersion": "3.3.4",
  "updatedAt": "2021-03-20T21:05:14.584Z",
  "devdoc": {
    "methods": {}
  },
  "userdoc": {
    "methods": {}
  }
}